:020000040800F2
:1000000000200020C1000008D1070008E507000813
:1000100000000000000000000000000000000000E0
:10002000000000000000000000000000D1070008F0
:100030000000000000000000D1070008D107000800
:10004000D1070008D1070008D1070008D107000830
:10005000D1070008D1070008D1070008D107000820
:10006000D1070008D1070008D1070008D107000810
:10007000D1070008D1070008D1070008D107000800
:10008000D1070008D1070008D1070008D1070008F0
:10009000D1070008D1070008D1070008D1070008E0
:1000A000D1070008D1070008D1070008590A000845
:1000B000D1070008D1070008D1070008D1070008C0
:1000C00000F030FB00F0F2FAE1235B02180000F0D0
:1000D0001FFC62B600F0CEF9024B180000F088FD5C
:1000E000FEE7C0465829000880B582B000AF7860AE
:1000F000C0467B685A1E7A60002BFAD1C046C046C3
:10010000BD4602B080BD80B500AF0B4B2F221A60F8
:100110000A4B00221A600A4B05221A60C046084B9F
:100120001A6880235B021340F9D0054B00221A6045
:10013000C046BD4680BDC04614E000E018E000E0C7
:1001400010E000E080B582B000AF786001E0FFF71A
:10015000DAFF7B685A1E7A60002BF8D1C046C04691
:10016000BD4602B080BD80B584B000AF786000238A
:10017000FB600023BB607B68FF2B04DC7B681800FE
:10018000FFF7E0FF1CE07B68FF21180000F004FF90
:100190000300BB600023FB6005E0FF20FFF7D2FFF8
:1001A000FB680133FB60FA68BB689A42F5DB7B6849
:1001B000FF21180000F0D6FF0B001800FFF7C2FF68
:1001C000C046BD4604B080BD80B500AF0A4B0B4AA7
:1001D0001A600B4B00221A600A4B05221A60C046B7
:1001E000084B1A6880235B021340F9D0054B0022AC
:1001F0001A60C046BD4680BD14E000E07FBB000031
:1002000018E000E010E000E080B582B000AF786058
:1002100001E0FFF7D9FF7B685A1E7A60002BF8D106
:10022000C046C046BD4602B080BD80B582B000AFBA
:100230007860104B1A680F4B01210A431A607B68E3
:10024000002B00DA01335B101800FFF78CFF094B1D
:100250001A68084B01218A431A607B68002B00DA78
:1002600001335B101800FFF77EFFC046BD4602B0A9
:1002700080BDC0461400004880B582B000AF7860F1
:100280000F4B1A680E4B02210A431A607B68002B41
:1002900000DA01335B101800FFF765FF084B1A689E
:1002A000074B02218A431A607B68002B00DA013376
:1002B0005B101800FFF757FFC046BD4602B080BD77
:1002C0001404004880B582B000AF78600F4B1A6804
:1002D0000E4B80210A431A607B68002B00DA013341
:1002E0005B101800FFF73FFF084B1A68074B80218F
:1002F0008A431A607B68002B00DA01335B10180018
:10030000FFF731FFC046BD4602B080BD140400486F
:1003100080B582B000AF7860104B1A680F4B802117
:1003200009020A431A607B68002B00DA01335B1074
:100330001800FFF718FF094B1A68084B08490A40D4
:100340001A607B68002B00DA01335B101800FFF79E
:100350000AFFC046BD4602B080BDC046140000483A
:10036000FF7FFFFF80B582B000AF7860104B1A6846
:100370000F4B802149000A431A607B68002B00DA8A
:1003800001335B101800FFF7EEFE094B1A68084BAB
:1003900008490A401A607B68002B00DA01335B10C1
:1003A0001800FFF7E0FEC046BD4602B080BDC04663
:1003B00014000048FFFEFFFF80B582B000AF7860F8
:1003C000284B1A68274B01210A431A60264B1A68EA
:1003D000254B02210A431A60234B1A68224B8021C5
:1003E0000A431A601F4B1A681E4B802149000A43BA
:1003F0001A601C4B1A681B4B802109020A431A60C1
:100400007B68002B00DA01335B101800FFF7ABFEAE
:10041000144B1A68134B01218A431A60124B1A6855
:10042000114B02218A431A600F4B1A680E4B802130
:100430008A431A600B4B1A680A4B0C490A401A602F
:10044000084B1A68074B0A490A401A607B68002B60
:1004500000DA01335B101800FFF785FEC046BD4689
:1004600002B080BD1400004814040048FF7FFFFF65
:10047000FFFEFFFF80B584B000AF7B4B180001F09A
:100480008FF97A4B1A68794B802189020A431A60E6
:10049000764B1A68754B8021C9020A431A60902373
:1004A000DB051A689023DB0501210A431A60704BB3
:1004B0001A686F4B04210A431A606D4B1A686C4B23
:1004C0008021C9010A431A609023DB051A68902332
:1004D000DB058021C9050A431A609023DB051A68F1
:1004E0009023DB05802149020A431A60FA235B004E
:1004F0001800FFF789FE5F4B180001F0DDF95E4B35
:10050000180001F0D9F95D4B180001F0D5F95C4BEA
:10051000180001F045F95B4B1B689B68180000F060
:10052000FFFE3B1D0221180000F09CFB3A1D564BBC
:100530001100180001F034F9524B1B689B68180039
:1005400000F0EEFE3B1D180000F012FE0300BB6041
:10055000BB68012BFCD10023FB600AE04B4B180069
:10056000FFF763FE4A4B1800FFF786FEFB68013376
:10057000FB60FB68202BF1DD0023FB600AE0454BAC
:100580001800FFF752FE444B1800FFF775FEFB689A
:100590000133FB60FB68202BF1DD0023FB600AE0E8
:1005A0003E4B1800FFF741FE3D4B1800FFF764FE7D
:1005B000FB680133FB60FB68202BF1DD0023FB604F
:1005C0000AE0344B1800FFF730FE334B1800FFF7FA
:1005D00053FEFB680133FB60FB68202BF1DD002339
:1005E000FB600AE02F4B1800FFF71FFE2E4B180090
:1005F000FFF742FEFB680133FB60FB68202BF1DD57
:100600000023FB600AE0234B1800FFF70EFE224B8D
:100610001800FFF731FEFB680133FB60FB68202BFD
:10062000F1DD0023FB600AE01C4B1800FFF7FDFD25
:100630001B4B1800FFF720FEFB680133FB60FB68D3
:10064000202BF1DD0023FB600AE0124B1800FFF7BE
:10065000ECFD114B1800FFF70FFEFB680133FB6048
:10066000FB68202BF1DD73E7F0280008141002402E
:1006700000040048FC28000800290008242900087C
:1006800044290008040000205029000877070000D2
:10069000DD1D000047060000EE130000A706000065
:1006A0005F160000EE0E00001C19000080B582B03D
:1006B00000AF164B7B60164B3B6007E07A68131D5A
:1006C0007B603B68191D396012681A603A68114BEB
:1006D0009A42F3D304E03B681A1D3A6000221A6084
:1006E0003A680D4B9A42F6D30C4B3B6004E03B68F2
:1006F0001A1D3A601B6898473A68094B9A42F6D32C
:10070000C046C046BD4602B080BDC046542B00085E
:1007100000000020680000202C010020542B00085D
:10072000542B000880B500AF244B1A68234B244992
:100730000A401A60C046214B1A6880239B0413406C
:10074000F9D1204B1A681F4B01210A431A601D4B37
:100750001A681C4B06218A431A601A4B1A68194BF7
:1007600010210A431A60184B1A68174B17490A40A0
:100770001A60154B1A68144BA02189030A431A60AA
:10078000114B1A68104B8021C9010A431A600B4BA8
:100790001A680A4B802149040A431A60C046074B75
:1007A0001A6880239B041340F9D0074B1A68064B44
:1007B00002210A431A60C046BD4680BD00100240B7
:1007C000FFFFFFFE0020024004100240FFFFC3FFB6
:1007D00080B500AF024B180000F00AFAFEE7C046F1
:1007E0007029000880B500AF024B180000F000FA35
:1007F000FEE7C0469829000890B585B000AF786044
:100800003960184B1B68002B02D101235B4224E0A6
:100810000023FB600AE0FB685A1CFA603A68D418AF
:10082000114B180000F0B1F9030023707B68013B05
:100830001A00FB68934205D20B4B180000F0CEF96A
:10084000031EE8D1FB68002B06D03A68FB68D3187A
:1008500000221A70FB6800E000231800BD4605B0B6
:1008600090BDC046140100207C00002080B584B0FB
:1008700000AF78603960224B1B68002B02D1012346
:100880005B4238E07B683F2B0BDCC0461D4B1800F9
:1008900000F0A4F903004022D21A7B689A42F5D3F3
:1008A00002E002235B4226E00023FB600BE03A6893
:1008B000FB68D3181A78134B1100180000F036F9B2
:1008C000FB680133FB607B68FA689A42EFD30E4BFA
:1008D0001B68082213400DD10B4B1A680A4B0821E4
:1008E0000A431A60074B180000F04FF903001A0082
:1008F000064B1A6000231800BD4604B080BDC046F8
:1009000014010020C80000200038014028380140B0
:1009100080B584B000AF786072B63F4B00229A6415
:100920003D4B9A6C3C4B5A643B4B5A6C3A4B1A64A5
:100930003A4B00229A64394B9A6C384B5A64374BC5
:100940005A6C364B1A64364B01221A60354B002222
:100950001A60354B1A68344B802189020A431A60A9
:10096000324BFB607968F86800F016FB0300FB600F
:100970002F4B1A682E4B8021C9020A431A602D4B57
:100980001A682C4B2C490A401A609023DB051A6820
:100990009023DB05802109030A431A60274B1A685C
:1009A000264B10210A431A609023DB051A68902316
:1009B000DB05802189030A431A60204B1A681F4B0C
:1009C000802149000A431A601D4B1A681C4B802184
:1009D000C9010A431A601B4B1A681A4B6C210A435F
:1009E0001A60194B00221A60184B00221A60184B2B
:1009F000FA681A60134B1A68124B01210A431A60F5
:100A0000144B1A68134B802109050A431A6062B619
:100A1000C046BD4604B080BD7C000020C800002058
:100A2000140100207800002014100240006CDC0249
:100A30000800004804000048FFFDFFFF24000048B4
:100A400018100240003801400438014008380140C5
:100A50000C38014000E100E080B500AF084B1B6896
:100A60008022134001D000F025F8054B1B6820229E
:100A7000134001D000F006F8C046BD4680BDC04618
:100A80001C38014080B500AF074B1B68DAB2074B3A
:100A90001100180000F04AF8031E02D0044B012296
:100AA0001A60C046BD4680BD243801407C0000204D
:100AB0007800002080B500AF164B180000F08EF8CB
:100AC000031E08D0134B180000F05FF803001A0053
:100AD000114B1A601BE0114B1A68104B08218A4316
:100AE0001A600F4B1B684022134005D00D4B1A684B
:100AF0000C4B40210A431A60094B1B6880221340AB
:100B000005D0094B1A68084B10210A431A60C046E9
:100B1000BD4680BDC8000020283801400038014093
:100B20001C380140203801401838014080B582B09F
:100B300000AF78600A00FB1C1A707B681A6C7B6837
:100B40005B6C9A4205D17B689B6C002B01D0012322
:100B500017E072B67B681B6C591C7A6811647A685E
:100B6000F91C0978D1547B689B6C5A1C7B689A6489
:100B70007B681B6C402B02D17B6800221A6462B632
:100B800000231800BD4602B080BD80B584B000AF20
:100B900078607B689B6C002B01D100231AE072B651
:100BA0007B685B6C591C7A6851640F22BA187968AB
:100BB000CB5C13707B685B6C402B02D17B6800229E
:100BC0005A647B689B6C5A1E7B689A6462B60F23DA
:100BD000FB181B781800BD4604B080BD80B582B0FC
:100BE00000AF78607B689B6C1800BD4602B080BD8A
:100BF00080B582B000AF78600B4B1B68002B09D129
:100C000001235B420BE07B685A1C7A6019000120CB
:100C1000FFF72CFE7B681B78002BF4D10023180013
:100C2000BD4602B080BDC0461401002080B582B030
:100C300000AF0200FB1D1A70FB1D19000120FFF719
:100C400015FEC046BD4602B080BD80B500AF044B66
:100C50001800FFF79AFF03001800BD4680BDC0468C
:100C60007C000020B0B584B000AF786039601E4BC6
:100C70001B68002B02D101235B4231E00023FB60A3
:100C80000B23FB1800221A7017E0C046174B180000
:100C9000FFF7A4FF031EF9D00B257C19134B180096
:100CA000FFF773FF03002370FB685A1CFA601A00F9
:100CB0007B689B187A1912781A703B68013BFA68B6
:100CC0009A4204DA0B23FB181B780D2BDDD1FB684D
:100CD000002B04DDFB687A68D31800221A70FB68C9
:100CE0001800BD4604B0B0BD140100207C000020F7
:100CF00080B582B000AF7860FEE780B582B000AF0B
:100D0000786001235B421800BD4602B080BD80B50B
:100D100084B000AFF860B9607A60044B0C221A60AE
:100D200001235B421800BD4604B080BD1C010020B9
:100D300080B500AF034B0B221A6001235B42180001
:100D4000BD4680BD1C01002080B582B000AF786038
:100D500039603B68802292015A6000231800BD462A
:100D600002B080BD80B500AF01231800BD4680BD34
:100D700080B582B000AF78603960044B16221A60EB
:100D800001235B421800BD4602B080BD1C0100205B
:100D900080B582B000AF78603960044B1F221A60C2
:100DA00001235B421800BD4602B080BD1C0100203B
:100DB00080B584B000AFF860B9607A600023180095
:100DC000BD4604B080BD80B582B000AF78603960A8
:100DD0003B68802292015A6000231800BD4602B091
:100DE00080BD80B582B000AF786001235B421800FF
:100DF000BD4602B080BD80B582B000AF7860044BC4
:100E000002221A6001235B421800BD4602B080BD79
:100E10001C01002080B582B000AF7860044B0A222C
:100E20001A6001235B421800BD4602B080BDC04677
:100E30001C01002080B582B000AF78607B68022B77
:100E400001D8012303E0044B09221A600023180093
:100E5000BD4602B080BDC0461C01002080B586B0F2
:100E600000AF7860144B7B61144B154A9446634481
:100E70003B61144B1B68002B02D1124B7A691A603C
:100E8000104B1B68FB600F4B1A687B68D3183A69DC
:100E90009A4205D20C4B0C221A6001235B4206E0F9
:100EA000084B1A687B68D218064B1A60FB6818005A
:100EB000BD4606B080BDC0462C01002000200020A9
:100EC00000F0FFFF6C0000201C01002080B588B0FE
:100ED00000AFF860B9607A600023BB61FB68002B4B
:100EE00022D10023FB611AE0FFF7AFFE03001A00D6
:100EF00017217B181A70BB685A1CBA607A181278CE
:100F0000D2B21A70BB690133BB617B181B78DBB2AC
:100F10000A2B01D1BB690EE0FB690133FB61FA6961
:100F20007B689A42E0DB05E0054B09221A60012349
:100F30005B4200E0BB691800BD4608B080BDC046FA
:100F40001C01002080B586B000AFF860B9607A60FF
:100F5000FB68013B012B11D800237B6109E0BB68D2
:100F60005A1CBA601B781800FFF760FE7B690133DA
:100F70007B617A697B689A42F1DB05E0054B0922C7
:100F80001A6001235B4200E07B681800BD4606B092
:100F900080BDC0461C01002003460B437FD40022C5
:100FA00043088B4274D303098B425FD3030A8B42FD
:100FB00044D3030B8B4228D3030C8B420DD3FF2267
:100FC000090212BA030C8B4202D31212090265D035
:100FD000030B8B4219D300E0090AC30B8B4201D3E8
:100FE000CB03C01A5241830B8B4201D38B03C01A2F
:100FF0005241430B8B4201D34B03C01A5241030BA6
:101000008B4201D30B03C01A5241C30A8B4201D356
:10101000CB02C01A5241830A8B4201D38B02C01A01
:101020005241430A8B4201D34B02C01A5241030A78
:101030008B4201D30B02C01A5241CDD2C3098B425D
:1010400001D3CB01C01A524183098B4201D38B01DA
:10105000C01A524143098B4201D34B01C01A52417D
:1010600003098B4201D30B01C01A5241C3088B42C2
:1010700001D3CB00C01A524183088B4201D38B00AD
:10108000C01A524143088B4201D34B00C01A52414F
:10109000411A00D201465241104670475DE0CA0F26
:1010A00000D04942031000D34042534000229C46E6
:1010B00003098B422DD3030A8B4212D3FC228901F0
:1010C00012BA030A8B420CD3890192118B4208D3C6
:1010D000890192118B4204D389013AD0921100E028
:1010E0008909C3098B4201D3CB01C01A524183093C
:1010F0008B4201D38B01C01A524143098B4201D369
:101100004B01C01A524103098B4201D30B01C01A93
:101110005241C3088B4201D3CB00C01A524183080D
:101120008B4201D38B00C01A5241D9D243088B4263
:1011300001D34B00C01A5241411A00D20146634606
:1011400052415B10104601D34042002B00D549426A
:10115000704763465B1000D3404201B5002000F0A9
:1011600005F802BD0029F8D016E770477047C04661
:1011700010B50A22002100F09BFC10BD10B50A2317
:10118000002200F085FC10BDF7B58B8905000C002E
:101190001A075FD44A68002A04DC0A6C002A01DCC2
:1011A0000020FEBDE76A002FFAD0002280212E68C1
:1011B0002A601A0049010A400B4234D0606DA389AD
:1011C0005B0706D56368C01A636B002B01D0236CE4
:1011D000C01A0200216A00232800E76AB847A189E3
:1011E000431C06D12B681D2B31D82C4ADA40D3077B
:1011F0002DD50023636023692360CB0405D5431CF0
:1012000002D12B68002B00D16065616B2E60002934
:10121000C6D023004433994202D0280000F004FADB
:1012200000206063BDE701232800216AB847431C02
:10123000C5D12B68002BC2D01D2B01D0162B01D19C
:101240002E60ADE74023A2891343A381A9E7402381
:101250000B43FAE70F69002FA2D00A680F60D21B78
:10126000019200229B0700D14A69A260019B002BDA
:1012700000DC95E73A002800019B216AA66AB04786
:10128000002806DC40230120A28940421343A381A9
:1012900087E7019B3F181B1A0193E7E701004020F5
:1012A0000B6970B505000C00002B02D10025280049
:1012B00070BD002804D08369002B01D100F0C8F86C
:1012C000144B9C421BD16C680C22A35E002BEDD00A
:1012D000626ED20704D49B0502D4A06D00F094F98D
:1012E00028002100FFF750FF636E0500DB07DED406
:1012F000A3899B05DBD4A06D00F08CF9D7E7064BE2
:101300009C4201D1AC68DFE7044B9C42DCD1EC6825
:10131000DAE7C046DC290008FC290008BC290008DF
:10132000010010B5002805D1054B0649186800F0EA
:1013300046F910BD044B1868FFF7B2FFF9E7C04645
:101340001C2A0008A112000804000020002310B588
:101350000400036043608360818143661900C28199
:1013600003614361836108225C3000F054F9054B4E
:101370006362054B2462A362044BE362044B236364
:1013800010BDC046F11800081D19000855190008C5
:101390008119000810B5024900F011F910BDC046CE
:1013A000A1120008436E10B5DB0705D483899B05A5
:1013B00002D4806D00F028F9002010BD436E10B5F6
:1013C000DB0705D483899B0502D4806D00F022F9E8
:1013D000002010BD70B568254A1E55430E00290037
:1013E000743100F06BF9041E08D000212A0001605E
:1013F00046600C30A060683200F00DF9200070BD2E
:1014000010B5024B1868FFF7C5FF10BD1C2A000875
:1014100010B5024800F0F8F810BDC04628010020C1
:1014200010B5024800F0F6F810BDC04628010020B3
:1014300010B5024800F0E8F810BDC04623010020B6
:1014400010B5024800F0E6F810BDC04623010020A8
:1014500013B50400FFF7ECFFA369002B02D0FFF7E0
:10146000EFFF13BDA364E3642365134B134A1B68AA
:10147000A2620193A34201D10123A361200000F0E5
:101480001FF86060200000F01BF8A060200000F052
:1014900017F800220421E0606068FFF757FF01227F
:1014A0000921A068FFF752FF02221221E068FFF72E
:1014B0004DFF0123A361D2E71C2A00089513000801
:1014C000F8B50700FFF7A4FF1F4B1E68B369002B98
:1014D00002D13000FFF7BCFF4836B4687368013BA7
:1014E00004D53368002B22D03668F6E70C22A55EBF
:1014F000002D1AD12000154B5830E360656600F0CE
:101500007FF8FFF78DFF2000082229002560A560E5
:10151000656025616561A5615C3000F07CF86563FC
:10152000A563A564E5642000F8BD6834D7E704210D
:101530003800FFF74FFF041E3060D5D1FFF770FF72
:101540000C233B60EFE7C0461C2A00080100FFFFA8
:1015500010B5FFF75DFF034B0349186800F014F85E
:1015600010BDC04604000020A513000810B5044BB0
:101570000449186800F008F8FFF752FF10BDC04694
:1015800004000020BD130008F7B548300400002611
:101590000191A5686768013F04D52468002CF8D143
:1015A0003000FEBDAB89012B07D90E22AB5E0133A3
:1015B00003D02800019B984706436835EBE7F7B551
:1015C000040006000027019148346368A568009371
:1015D000009B013B009304D52468002CF5D1380012
:1015E000FEBDAB89012B08D90E22AB5E013304D0BE
:1015F00029003000019B984707436835E8E77047AA
:10160000704770477047704770470120704701204E
:1016100070477047704703008218934200D17047AB
:1016200019700133F9E7000070B50500002910D0EA
:101630000C1F2368002B00DAE418280000F0C2FB1E
:101640001D4A1368002B05D163601460280000F068
:10165000C1FB70BDA34208D9216860188342F3D151
:1016600018685B6841182160EEE71A005B68002B80
:1016700001D0A342F9D911685018A0420BD12068BB
:101680000918501811608342E0D118685B6841184E
:1016900011605360DAE7A04202D90C232B60D5E732
:1016A00021686018834203D118685B684118216083
:1016B00063605460CAE7C04670000020F8B5032399
:1016C000CD1C9D43083506000C2D1FD20C25A942C8
:1016D0001ED8300000F076FB25490A681400002C63
:1016E0001AD1244F3B68002B04D12100300000F0B8
:1016F000EDF838602900300000F0E8F8431C2BD1E9
:101700000C233000336000F065FB03E0002DDEDACF
:101710000C2333600020F8BD23685B1B19D40B2B0E
:1017200003D92360E418256003E06368A2420ED168
:101730000B60300000F04EFB200007220B30231D11
:101740009043C21A9842E6D01B1AA350E3E75360B5
:10175000EFE722006468C2E70323C41C9C43A04255
:10176000E1D0211A300000F0B1F8431CDBD1C7E70B
:1017700070000020740000200EB417B5041E04D0C1
:101780008369002B01D1FFF763FE06AB2000059AA9
:10179000A168019300F05CFB1EBC08BC03B01847B5
:1017A0000FB40B4B13B51C68002C05D0A369002B9C
:1017B00002D12000FFF74CFE05AB2000049AA1687F
:1017C000019300F045FB16BC08BC04B01847C046A6
:1017D0000400002070B505000E00002804D08369C5
:1017E000002B01D1FFF734FEAB69AC68002B02D1AE
:1017F0002800FFF72DFE2D4B9C4222D16C68636EB2
:10180000DB0705D4A3899B0502D4A06DFFF7FCFE7E
:10181000A3891B0702D52369002B29D121002800A9
:1018200000F0C6F9002823D001256D42636EDB0766
:1018300005D4A3899B0502D4A06DFFF7EBFE280019
:1018400070BD1B4B9C4201D1AC68D8E7194B9C4240
:10185000D5D1EC68D3E70136A360002B04DAA26986
:101860009A4216DC0A2914D023685A1C2260197087
:10187000A3683178013B0029EDD1A360002B0FDA7A
:10188000280022000A3100F01FF90A25431CCDD19F
:10189000CAE72200280000F017F9431CE8D1C3E78B
:1018A0000A2523685A1C22601D70BFE7DC29000846
:1018B000FC290008BC29000810B5034B010018687A
:1018C000FFF788FF10BDC04604000020002370B55C
:1018D000064D040008002B60FFF7C0FA431C03D13B
:1018E0002B68002B00D0236070BDC0461C01002077
:1018F00070B50C000E25495F00F072FD002803DB77
:10190000636D1B18636570BDA389024A1340A381F0
:10191000F9E7C046FFEFFFFF00207047F8B51F0052
:101920008B8905000C001600DB0505D50E23C95E6A
:101930000022022300F0C6F9A389054A28001340BB
:10194000A38132000E23E15E3B0000F01DF9F8BDDB
:10195000FFEFFFFF70B50C000E25495F00F0B2F9F4
:10196000A389421C03D1054A1340A38170BD802284
:1019700052011343A3816065F8E7C046FFEFFFFF04
:1019800010B50E23C95E00F08BF910BDF0B51E0036
:101990003D4B87B00590029208009C4608220191B9
:1019A000030061461C78451C095D28000F001740A4
:1019B0001142F5D12D2C33D101272C789D1C002EFE
:1019C0005DD0102E09D1302C07D120222B789343E3
:1019D000582B4FD110266C7802352C4B3100FB1858
:1019E0001800039300F080FF0023012284461800B2
:1019F0000491524221003039092916D80C00A64220
:101A00001FDD591C09D01300844506D302D1049967
:101A1000A14202DB0123704320182C780135E9E74D
:101A20002B2CCCD12C789D1CC9E7210041391929D8
:101A300001D8373CE3E721006139192901D8573C27
:101A4000DDE75A1C08D1059A23331360029B0398E3
:101A5000002B09D107B0F0BD002F00D04042029A00
:101A6000002AF7D0002B01D06B1E0193029B019A34
:101A70001A60EFE73024002EAFD10836ADE7302CE6
:101A8000A3D00A26A9E7C046212A0008FFFFFF7F4E
:101A900010B5FFF77BFF10BD10B513000A00010061
:101AA00002480068FFF772FF10BDC0460400002026
:101AB00010B513000A00010002480068FFF766FF36
:101AC00010BDC04604000020F8B505000E0014004B
:101AD000002804D08369002B01D1FFF7B9FC224B09
:101AE0009C422ED16C68A369A360A3891B0732D5E1
:101AF0002369002B2FD023682269F7B2981A6369F3
:101B0000F6B2834205DC21002800FFF7C9FB00285C
:101B100027D1A3680130013BA36023685A1C2260CF
:101B20001F706369834204D0A389DB0707D50A2E9F
:101B300005D121002800FFF7B3FB002811D13000A8
:101B4000F8BD0A4B9C4201D1AC68CCE7084B9C42E3
:101B5000C9D1EC68C7E72100280000F029F8002867
:101B6000C9D001267642EAE7DC290008FC290008F2
:101B7000BC29000810B5034B0A0001001868FFF7E4
:101B8000A3FF10BD0400002070B504000800110080
:101B90001A000023054D2B60FFF7D4F9431C03D135
:101BA0002B68002B00D0236070BDC0461C010020B4
:101BB000374B70B51D6806000C00002D05D0AB69D1
:101BC000002B02D12800FFF743FC324B9C420FD17F
:101BD0006C680C23E25E93B211072DD4D90611D4A0
:101BE00009230120336037331343A381404270BD82
:101BF000294B9C4201D1AC68EBE7284B9C42E8D1D1
:101C0000EC68E6E75B0713D5616B002908D0230079
:101C10004433994202D03000FFF706FD002363638E
:101C20002422A3899343A381002363602369236053
:101C30000823A2891343A3812369002B0BD1A02180
:101C40008022A389890092000B40934203D0210097
:101C5000300000F073F80C22A35E01201A0099B244
:101C6000024003420FD00022A26062695242A26188
:101C7000002022698242BAD10A06B8D54022134315
:101C8000A3810138B3E7880700D46269A260EFE757
:101C900004000020DC290008FC290008BC290008F9
:101CA000002370B5064D040008002B60FFF725F8EF
:101CB000431C03D12B68002B00D0236070BDC046AD
:101CC0001C01002070B50400080011001A00002358
:101CD000054D2B60FFF76CF8431C03D12B68002BDC
:101CE00000D0236070BDC0461C01002070B50E00FE
:101CF0001D000E23C95E140096B0002907DA0023E8
:101D00002B60B3891B0611D48023DB000FE06A46E9
:101D100000F07AFB0028F2DBF02301991B02194046
:101D2000054BC9184B4259412960EDE7402300207B
:101D3000236016B070BDC04600E0FFFFF7B5022675
:101D40008B8905000C00334206D023004733236003
:101D5000236101236361F7BD6A4601ABFFF7C6FF4C
:101D6000009907002800FFF7A9FC002808D10C22E1
:101D7000A35E9A05EFD4032293431E43A681E4E7B2
:101D80000F4BAB628023A28920601343A381009B89
:101D900020616361019B002B0DD028000E23E15EC2
:101DA00000F0AAFC002806D00322A38993431A005E
:101DB00001231343A381A0890743A781CBE7C04632
:101DC0009513000810B50248FFF71EFC10BDC04671
:101DD0002401002010B50248FFF71CFC10BDC046CE
:101DE00024010020936810B5013B9360002B04DAB6
:101DF0009469A34207DB0A2905D01368581C1060B8
:101E00001970080010BDFFF75FFE0100F9E7F8B593
:101E100006000F001400D518AC4201D1002007E0E5
:101E200021783A003000FFF7DDFF0134431CF3D185
:101E3000F8BD936810B51400002B02D11800536050
:101E400010BD00F0F3FA0023A3606360F8E7000020
:101E5000F0B5A1B006000C001F000392002804D0CA
:101E60008369002B01D1FFF7F3FA8E4B9C421CD102
:101E70007468636EDB0705D4A3899B0502D4A06D4B
:101E8000FFF7C2FBA3891B0702D52369002B1DD1D5
:101E900021003000FFF78CFE002817D0636EDB07AF
:101EA0000DD50120404221B0F0BD7F4B9C4201D1B5
:101EB000B468DEE77D4B9C42DBD1F468D9E7A389A7
:101EC0009B05EED4A06DFFF7A5FBEAE7002308AD64
:101ED0006B6120336B761033AB760797039F3B78AB
:101EE000002B01D0252B4ED1039BFB1A0593039B9E
:101EF0009F420DD0059B21003000039AFFF787FF1A
:101F0000431C00D1B5E06A69059B944663446B614C
:101F10003B78002B00D1ACE001227B1C0393002313
:101F200052426A6004A9543252182B60EB60AB60D5
:101F30001370AB65039B052219785D4800F0EEFB3A
:101F4000039B5F1C002820D12A68D30604D55323A5
:101F500004A95B1820211970130704D5532304A981
:101F60005B182B211970039B1B782A2B16D000219C
:101F7000EB68039F3A78781C303A8446092A4FD997
:101F8000002911D117E00137A9E7494B2A68C01A87
:101F90000123834013432B600397CBE7079B191D55
:101FA0001B680791002B01DB0B9304E05B42EB60A5
:101FB000022313432B603B782E2B0AD17B782A2BEC
:101FC00037D1079B02371A1D1B680792002B2DDBA8
:101FD000099303223978374800F0A0FB002807D086
:101FE000344B2A68C01A40238340134301372B60C7
:101FF00039787B1C062230480393297600F08EFB4B
:10200000002845D02D4B002B27D10722079B0733F3
:102010009343083307936B69049A9B186B615DE7E0
:102020000A214B4367469B180939A3E701235B420A
:10203000CEE700231A0001376B603978781C3039FD
:102040008446092903D9002BC3D00992C1E70A238A
:102050005A4367465218093BEFE707AB009322004B
:1020600029003000164B00E000BF0490049B0133B0
:10207000D1D1636EDB0705D4A3899B0502D4A06D83
:10208000FFF7C8FAA3895B0600D50AE70D980AE7AF
:1020900007AB0093220029003000094B00F08EF8B6
:1020A000E3E7C046DC290008FC290008BC29000839
:1020B000212B0008272B00082B2B00080000000014
:1020C0000F1E000810B513000A0001000248006846
:1020D000FFF7BEFE10BDC04604000020F7B5150096
:1020E00001938A680B690C000090934200DA130098
:1020F00022002B6043321278002A01D001332B607A
:1021000023689B0602D52B6802332B6022680623C6
:1021100017001F401A4227D0230043331B785A1E52
:1021200093412268920630D4220001990098089EBB
:102130004332B047431C25D0062320682A68E16853
:1021400000250340042B03D18D1AEB43DB171D4000
:10215000A3682269934201DD9B1AED180027BD4256
:1021600020D1002010E00137E3682A689B1ABB42A7
:10217000D2DD2200012301990098089E1932B04750
:10218000431CF0D101204042FEBD3020E118433114
:10219000087021005A1C45310978A21843320233D5
:1021A0001170C1E72200012301990098089E1A329C
:1021B000B047431CE6D00137D1E70000F0B58BB043
:1021C00006920A0043320793059004920A7E0C009F
:1021D000109B782A06D8622A08D8002A00D1C0E0CD
:1021E000582A52D026004236327022E0100063385E
:1021F0001528F7D800F0E8FA16001F00F6FFF6FFE2
:10220000F6FFF6FF1F00F6FFF6FFF6FFF6FFA80049
:1022100036009A00F6FFF6FFB900F6FF3600F6FF2B
:10222000F6FF9E0026001A684236111D19601368D9
:1022300033700123A7E0086819680A1D05060BD54D
:102240000D681A60002D03DA2D23049A6D42137075
:10225000614B0A27039332E00D681A604106F1D5FD
:102260002DB2EFE70D681968081D18602E0601D51C
:102270000D6803E06D06FBD50D68ADB2564B0A271D
:1022800003936F2A17D1082715E045310A70524A87
:1022900003921A68216820CA1A60080650D5CB0735
:1022A00002D52023194321601027002D03D12023BC
:1022B00022689A4322602300002243331A70636825
:1022C000A360002B03DB0422216891432160002DD1
:1022D00002D1049E002B0CD0049E2800390000F08F
:1022E00003FB039B013E5B5C33702B0005009F42A8
:1022F000F3D9082F09D12368DB0706D56368226963
:10230000934202DC3023013E3370049B9B1B23610C
:10231000079B210000930598069B09AAFFF7DEFEA4
:10232000431C35D1012040420BB0F0BD202209688A
:102330000A4322602200782145321170274AA7E71C
:102340004806ACD5ADB2AAE71A680D68101D4969F8
:10235000186013682E0601D5196002E06D06FBD5E2
:1023600019800023049E2361D2E71A68111D1960A9
:10237000166800213000626800F0D0F9002801D012
:10238000801B6060636823610023049A1370BFE7B9
:102390002369320006990598079DA847431CC1D0C0
:1023A00023689B0715D4099BE0689842BCDA1800A3
:1023B000BAE72200012306990598079E1932B04713
:1023C000431CAFD00135E368099A9B1AAB42F0DC9D
:1023D000E9E70025F7E7C046322B0008432B000849
:1023E00070B50400080011001A000023054D2B6091
:1023F000FEF76CFD431C03D12B68002B00D023603B
:1024000070BDC0461C010020002370B5064D0400BD
:10241000080011002B60FEF797FC431C03D12B68CA
:10242000002B00D0236070BD1C010020F0B5936824
:1024300087B00C00029003920093002B02D1002081
:1024400007B0F0BD8B891B0759D50B69002B56D0FF
:10245000039B02221B680193A3891F0017401342AC
:1024600073D1012219001140134200D1A8E03800B5
:102470003E0000970592009B002B00D112E100283E
:102480000AD11A000A21300000F048F9009B5F1CB5
:10249000002801D00130871B009B04979F4200D980
:1024A0000493206822696369904200D803E1A2681E
:1024B0009D18049AAA4200DCFDE031002A0000F0D9
:1024C00041F9236821005B1902982360FEF7E8FEBA
:1024D000002870D105987F1B05D121000298FEF7D6
:1024E000DFFE002867D1009B76195B1B0093039BDE
:1024F0009B685D1B0493039B9D60BCD19FE72100FB
:102500000298FFF755FB0028A2D00120404297E730
:10251000019B1E685D6808330193002DF8D0724A54
:102520002B00954200D913003200216A0298A76A55
:10253000B84700283FDD039B36189B682D1A00938F
:10254000181A039B9860E8D179E700263500E4E784
:10255000019B1B680493019B5B680093019B0833FC
:102560000193009B002BF3D08023A2899B00A568D8
:1025700020681A4264D0009B9D4235D89023DB002E
:102580001A4231D00326636921695E43471AF00F6E
:10259000861900987B1C1B187610B34200D91E00C8
:1025A00053053ED531000298FFF788F8051E0AD181
:1025B0000C23029A13604023A2891343A381A4E74A
:1025C00004910091CDE73A00216900F0B2F8A389A7
:1025D000464A1A4080231343A3812561ED192560E3
:1025E0006661009DF61BA660009FBD4200D93D00BC
:1025F0002A000499206800F0A5F8A3685B1BA3607B
:1026000023685D192560049BDB190493009BDB1B89
:102610000093039B9B68DF1B0593039B9F60A0D1E6
:102620000DE73200029800F0A0F8051ED5D121690F
:102630000298FEF7F9FF8022A3899343A381B7E7AD
:102640002369834203D36769009B9F4217D9009B8C
:102650009D4200D91D002A00049900F073F8A36878
:1026600022685B1B52192F00A3602260002BCAD185
:1026700021000298FEF714FE0028C4D09BE7009AC0
:102680001B4B10009A4200D91A483900FEF784FC0F
:102690003B00049A4343216A0298A56AA847071E93
:1026A000B1DC88E7019B00201E685B680093019BFA
:1026B00008330193DFE6049A934208DCA56A3200EE
:1026C000216A0298A847051E00DD03E773E7049A14
:1026D000310000F037F8049AA36815009B1AA36034
:1026E00023689B182360F5E600FCFF7F7FFBFFFF5C
:1026F000FEFFFF7FFFFFFF7F002370B5064D040044
:1027000008002B60FEF796FB431C03D12B68002BBF
:1027100000D0236070BDC0461C010020C9B28218E1
:10272000904201D10020704703788B42FBD00130EA
:10273000F6E7002310B59A4200D110BDCC5CC4541A
:102740000133F8E710B5884202D98B18984203D3B9
:10275000002307E08B5C8354013AFBD210BDCC5CB4
:10276000C45401339A42FAD1F8E7F8B507000D00D6
:102770001600002905D11100FEF7A0FF040020007B
:10278000F8BD002A03D1FEF74FFF3400F7E700F051
:1027900012F82C00B042F2D231003800FEF78EFF62
:1027A000041EECD029003200FFF7C3FF29003800D7
:1027B000FEF73AFFE3E70B1F1B68181F002B01DA37
:1027C0000B58C0187047000003B471464908400018
:1027D0004900095E49008E4403BC7047002243084B
:1027E0008B4274D303098B425FD3030A8B4244D3D9
:1027F000030B8B4228D3030C8B420DD3FF2209021B
:1028000012BA030C8B4202D31212090265D0030BD9
:102810008B4219D300E0090AC30B8B4201D3CB03CF
:10282000C01A5241830B8B4201D38B03C01A524111
:10283000430B8B4201D34B03C01A5241030B8B4213
:1028400001D30B03C01A5241C30A8B4201D3CB02FE
:10285000C01A5241830A8B4201D38B02C01A5241E3
:10286000430A8B4201D34B02C01A5241030A8B42E6
:1028700001D30B02C01A5241CDD2C3098B4201D3FE
:10288000CB01C01A524183098B4201D38B01C01A7C
:10289000524143098B4201D34B01C01A52410309F3
:1028A0008B4201D30B01C01A5241C3088B4201D3A2
:1028B000CB00C01A524183088B4201D38B00C01A4F
:1028C000524143088B4201D34B00C01A5241411A76
:1028D00000D20146524110467047FFE701B5002083
:1028E000FEF744FC02BDC0460029F7D076E77047EA
:1028F0001B5B313B31481B5B324A00000D0000007E
:10290000506C656173652073656C65637420796FC5
:102910007572206D757369632070696563653A0D22
:102920000000000031292042656574686F76656E8D
:10293000202D2053796D70686F6E79206E6F2E2078
:10294000350D0000456E74657220313A200000009C
:1029500025730D0A0000000052657475726E65647F
:102960002066726F6D206D61696E2829000000007D
:10297000496E7465727275707420776974686F75CA
:1029800074204953522E202053797374656D20733F
:10299000746F702E000000004861726420466175FB
:1029A0006C7420696E746572727570742E20205379
:1029B000797374656D2073746F702E0000000000D1
:1029C0000000000000000000000000000000000007
:1029D00000000000000000000000000000000000F7
:1029E00000000000000000000000000000000000E7
:1029F00000000000000000000000000000000000D7
:102A000000000000000000000000000000000000C6
:102A1000000000000000000000000000080000208E
:102A2000002020202020202020202828282828209E
:102A30002020202020202020202020202020202096
:102A400020881010101010101010101010101010FE
:102A500010040404040404040404041010101010EE
:102A600010104141414141410101010101010101B8
:102A7000010101010101010101010101101010100A
:102A8000101042424242424202020202020202028A
:102A900002020202020202020202020210101010DE
:102AA0002000000000000000000000000000000006
:102AB0000000000000000000000000000000000016
:102AC0000000000000000000000000000000000006
:102AD00000000000000000000000000000000000F6
:102AE00000000000000000000000000000000000E6
:102AF00000000000000000000000000000000000D6
:102B000000000000000000000000000000000000C5
:102B100000000000000000000000000000000000B5
:102B200000232D302B2000686C4C006566674546FD
:102B30004700303132333435363738394142434437
:102B400045460030313233343536373839616263C7
:042B50006465660052
:102B5400680000200800002000000000DC290008B4
:102B6400FC290008BC290008000000000000000047
:102B74000000000000000000000000000000000051
:102B84000000000000000000000000000000000041
:102B94000000000000000000000000000000000031
:102BA4000000000000000000000000000000000021
:082BB400000000000000000019
:04000005080000C12E
:00000001FF
